{
  "transactions": [
    {
      "hash": "0x4b2974a1c531dd5596b926ef4e0022802a750ab3941e1f74b8963139ffabd1c5",
      "transactionType": "CALL",
      "contractName": null,
      "contractAddress": "0x6175a8471C2122f778445e7E07A164250a19E661",
      "function": "approve(address,uint256):(bool)",
      "arguments": [
        "0xC532a74256D3Db42D0Bf7a0400fEFDbad7694008",
        "100000000000000000000 \u001b[2;49;39m[1e20]\u001b[0m"
      ],
      "rpc": "https://eth-sepolia.g.alchemy.com/v2/JxNFqbMidPa4MEa-8ZwtZx_6NdyzdOHH",
      "transaction": {
        "type": "0x02",
        "from": "0xfd7059cf48ef2417a1b6eeac9a77b6ca2d94a34e",
        "to": "0x6175a8471c2122f778445e7e07a164250a19e661",
        "gas": "0x1087d",
        "value": "0x0",
        "data": "0x095ea7b3000000000000000000000000c532a74256d3db42d0bf7a0400fefdbad76940080000000000000000000000000000000000000000000000056bc75e2d63100000",
        "nonce": "0x200",
        "accessList": []
      },
      "additionalContracts": [],
      "isFixedGasLimit": false
    },
    {
      "hash": "0x8017578aee89fd8e9da9ef0d9be746ba4685c64e70507dff395b79a62bdeb2fc",
      "transactionType": "CALL",
      "contractName": "LinkToken",
      "contractAddress": "0x779877A7B0D9E8603169DdbD7836e478b4624789",
      "function": "approve(address,uint256):(bool)",
      "arguments": [
        "0xC532a74256D3Db42D0Bf7a0400fEFDbad7694008",
        "20000000000000000000 \u001b[2;49;39m[2e19]\u001b[0m"
      ],
      "rpc": "https://eth-sepolia.g.alchemy.com/v2/JxNFqbMidPa4MEa-8ZwtZx_6NdyzdOHH",
      "transaction": {
        "type": "0x02",
        "from": "0xfd7059cf48ef2417a1b6eeac9a77b6ca2d94a34e",
        "to": "0x779877a7b0d9e8603169ddbd7836e478b4624789",
        "gas": "0xf961",
        "value": "0x0",
        "data": "0x095ea7b3000000000000000000000000c532a74256d3db42d0bf7a0400fefdbad7694008000000000000000000000000000000000000000000000001158e460913d00000",
        "nonce": "0x201",
        "accessList": []
      },
      "additionalContracts": [],
      "isFixedGasLimit": false
    },
    {
      "hash": "0x6350147b0a93ddb97ac293050b888372219c67b7806678e4f04f6edada0854e3",
      "transactionType": "CALL",
      "contractName": null,
      "contractAddress": "0x7AF17A48a6336F7dc1beF9D485139f7B6f4FB5C8",
      "function": "approve(address,uint256):(bool)",
      "arguments": [
        "0xC532a74256D3Db42D0Bf7a0400fEFDbad7694008",
        "100000000000000000000 \u001b[2;49;39m[1e20]\u001b[0m"
      ],
      "rpc": "https://eth-sepolia.g.alchemy.com/v2/JxNFqbMidPa4MEa-8ZwtZx_6NdyzdOHH",
      "transaction": {
        "type": "0x02",
        "from": "0xfd7059cf48ef2417a1b6eeac9a77b6ca2d94a34e",
        "to": "0x7af17a48a6336f7dc1bef9d485139f7b6f4fb5c8",
        "gas": "0x1087d",
        "value": "0x0",
        "data": "0x095ea7b3000000000000000000000000c532a74256d3db42d0bf7a0400fefdbad76940080000000000000000000000000000000000000000000000056bc75e2d63100000",
        "nonce": "0x202",
        "accessList": []
      },
      "additionalContracts": [],
      "isFixedGasLimit": false
    }
  ],
  "receipts": [],
  "libraries": [],
  "pending": [
    "0x4b2974a1c531dd5596b926ef4e0022802a750ab3941e1f74b8963139ffabd1c5",
    "0x8017578aee89fd8e9da9ef0d9be746ba4685c64e70507dff395b79a62bdeb2fc",
    "0x6350147b0a93ddb97ac293050b888372219c67b7806678e4f04f6edada0854e3"
  ],
  "path": "/home/maroutis/simple-stable/broadcast/Approve.s.sol/11155111/run-latest.json",
  "returns": {},
  "timestamp": 1686500990,
  "chain": 11155111,
  "multi": false,
  "commit": "425e0c9"
}