{
  "transactions": [
    {
      "hash": "0xe6e83cf1032d9635417f98e017275bdfe4672323163decc7a5bb65b04f5883a7",
      "transactionType": "CALL",
      "contractName": null,
      "contractAddress": "0x6175a8471C2122f778445e7E07A164250a19E661",
      "function": "approve(address,uint256):(bool)",
      "arguments": [
        "0xC532a74256D3Db42D0Bf7a0400fEFDbad7694008",
        "100000000000000000000 \u001b[2;49;39m[1e20]\u001b[0m"
      ],
      "rpc": "https://eth-sepolia.g.alchemy.com/v2/JxNFqbMidPa4MEa-8ZwtZx_6NdyzdOHH",
      "transaction": {
        "type": "0x02",
        "from": "0xfd7059cf48ef2417a1b6eeac9a77b6ca2d94a34e",
        "to": "0x6175a8471c2122f778445e7e07a164250a19e661",
        "gas": "0x9d87",
        "value": "0x0",
        "data": "0x095ea7b3000000000000000000000000c532a74256d3db42d0bf7a0400fefdbad76940080000000000000000000000000000000000000000000000056bc75e2d63100000",
        "nonce": "0x245",
        "accessList": []
      },
      "additionalContracts": [],
      "isFixedGasLimit": false
    },
    {
      "hash": "0x95552b8a8914f1b6814d956cea9205a06b74b643ab35853e6a8c0a1f00731f7f",
      "transactionType": "CALL",
      "contractName": "LinkToken",
      "contractAddress": "0x779877A7B0D9E8603169DdbD7836e478b4624789",
      "function": "approve(address,uint256):(bool)",
      "arguments": [
        "0xC532a74256D3Db42D0Bf7a0400fEFDbad7694008",
        "20000000000000000000 \u001b[2;49;39m[2e19]\u001b[0m"
      ],
      "rpc": "https://eth-sepolia.g.alchemy.com/v2/JxNFqbMidPa4MEa-8ZwtZx_6NdyzdOHH",
      "transaction": {
        "type": "0x02",
        "from": "0xfd7059cf48ef2417a1b6eeac9a77b6ca2d94a34e",
        "to": "0x779877a7b0d9e8603169ddbd7836e478b4624789",
        "gas": "0xa65d",
        "value": "0x0",
        "data": "0x095ea7b3000000000000000000000000c532a74256d3db42d0bf7a0400fefdbad7694008000000000000000000000000000000000000000000000001158e460913d00000",
        "nonce": "0x246",
        "accessList": []
      },
      "additionalContracts": [],
      "isFixedGasLimit": false
    },
    {
      "hash": "0x52d621441a1579f0f9c9beda77d02ee4e3d9b0786e43575e6bac50e3fe4d1094",
      "transactionType": "CALL",
      "contractName": null,
      "contractAddress": "0x7AF17A48a6336F7dc1beF9D485139f7B6f4FB5C8",
      "function": "approve(address,uint256):(bool)",
      "arguments": [
        "0xC532a74256D3Db42D0Bf7a0400fEFDbad7694008",
        "100000000000000000000 \u001b[2;49;39m[1e20]\u001b[0m"
      ],
      "rpc": "https://eth-sepolia.g.alchemy.com/v2/JxNFqbMidPa4MEa-8ZwtZx_6NdyzdOHH",
      "transaction": {
        "type": "0x02",
        "from": "0xfd7059cf48ef2417a1b6eeac9a77b6ca2d94a34e",
        "to": "0x7af17a48a6336f7dc1bef9d485139f7b6f4fb5c8",
        "gas": "0x9d87",
        "value": "0x0",
        "data": "0x095ea7b3000000000000000000000000c532a74256d3db42d0bf7a0400fefdbad76940080000000000000000000000000000000000000000000000056bc75e2d63100000",
        "nonce": "0x247",
        "accessList": []
      },
      "additionalContracts": [],
      "isFixedGasLimit": false
    }
  ],
  "receipts": [
    {
      "transactionHash": "0xe6e83cf1032d9635417f98e017275bdfe4672323163decc7a5bb65b04f5883a7",
      "transactionIndex": "0x0",
      "blockHash": "0x0e173671031172b7f664313ee5033b043275d38dc622636bd37ce86b071dbe4f",
      "blockNumber": "0x380b8d",
      "from": "0xfD7059Cf48Ef2417a1b6Eeac9A77b6CA2D94A34e",
      "to": "0x6175a8471C2122f778445e7E07A164250a19E661",
      "cumulativeGasUsed": "0x720d",
      "gasUsed": "0x720d",
      "contractAddress": null,
      "logs": [
        {
          "address": "0x6175a8471C2122f778445e7E07A164250a19E661",
          "topics": [
            "0x8c5be1e5ebec7d5bd14f71427d1e84f3dd0314c0f7b2291e5b200ac8c7c3b925",
            "0x000000000000000000000000fd7059cf48ef2417a1b6eeac9a77b6ca2d94a34e",
            "0x000000000000000000000000c532a74256d3db42d0bf7a0400fefdbad7694008"
          ],
          "data": "0x0000000000000000000000000000000000000000000000056bc75e2d63100000",
          "blockHash": "0x0e173671031172b7f664313ee5033b043275d38dc622636bd37ce86b071dbe4f",
          "blockNumber": "0x380b8d",
          "transactionHash": "0xe6e83cf1032d9635417f98e017275bdfe4672323163decc7a5bb65b04f5883a7",
          "transactionIndex": "0x0",
          "logIndex": "0x0",
          "removed": false
        }
      ],
      "status": "0x1",
      "logsBloom": "0x00080000000000000000000000000000000080000000100000000000000800000000000000000000000000000000000000000000000000000000000000200000000000000000000000000000000000000000000000000000000000020000000000000000000000000000000000040000000000000000000000000000000000000000000000000000000000000000000000000000000000000000000000000000020000000000000000000000000000000000000000000000000000010000000000000100000000000000000000000000000800000000000000000000000000000010000000000000000000000000000000000000000000000000000000000000",
      "type": "0x2",
      "effectiveGasPrice": "0xb2d05e09"
    },
    {
      "transactionHash": "0x95552b8a8914f1b6814d956cea9205a06b74b643ab35853e6a8c0a1f00731f7f",
      "transactionIndex": "0x1",
      "blockHash": "0x0e173671031172b7f664313ee5033b043275d38dc622636bd37ce86b071dbe4f",
      "blockNumber": "0x380b8d",
      "from": "0xfD7059Cf48Ef2417a1b6Eeac9A77b6CA2D94A34e",
      "to": "0x779877A7B0D9E8603169DdbD7836e478b4624789",
      "cumulativeGasUsed": "0xe3ce",
      "gasUsed": "0x71c1",
      "contractAddress": null,
      "logs": [
        {
          "address": "0x779877A7B0D9E8603169DdbD7836e478b4624789",
          "topics": [
            "0x8c5be1e5ebec7d5bd14f71427d1e84f3dd0314c0f7b2291e5b200ac8c7c3b925",
            "0x000000000000000000000000fd7059cf48ef2417a1b6eeac9a77b6ca2d94a34e",
            "0x000000000000000000000000c532a74256d3db42d0bf7a0400fefdbad7694008"
          ],
          "data": "0x000000000000000000000000000000000000000000000001158e460913d00000",
          "blockHash": "0x0e173671031172b7f664313ee5033b043275d38dc622636bd37ce86b071dbe4f",
          "blockNumber": "0x380b8d",
          "transactionHash": "0x95552b8a8914f1b6814d956cea9205a06b74b643ab35853e6a8c0a1f00731f7f",
          "transactionIndex": "0x1",
          "logIndex": "0x1",
          "removed": false
        }
      ],
      "status": "0x1",
      "logsBloom": "0x00000004000000000000000000000000000080000000000000000000000800000000000000000000000000000000000000000000000000000000000000200000000000000000000000000000000000000000000000000000000000000000000000000000000000000000000000040000000000000000000000000000000000000000000000000000000000000000800000000000000000000000000000000000020000000000000000000000000000000000000000000000000000010000000000000100000000000000000000000000000800000000000100000000000000000010000000000000000000000000000000000000000000000000000000000000",
      "type": "0x2",
      "effectiveGasPrice": "0xb2d05e09"
    },
    {
      "transactionHash": "0x52d621441a1579f0f9c9beda77d02ee4e3d9b0786e43575e6bac50e3fe4d1094",
      "transactionIndex": "0x2",
      "blockHash": "0x0e173671031172b7f664313ee5033b043275d38dc622636bd37ce86b071dbe4f",
      "blockNumber": "0x380b8d",
      "from": "0xfD7059Cf48Ef2417a1b6Eeac9A77b6CA2D94A34e",
      "to": "0x7AF17A48a6336F7dc1beF9D485139f7B6f4FB5C8",
      "cumulativeGasUsed": "0x155db",
      "gasUsed": "0x720d",
      "contractAddress": null,
      "logs": [
        {
          "address": "0x7AF17A48a6336F7dc1beF9D485139f7B6f4FB5C8",
          "topics": [
            "0x8c5be1e5ebec7d5bd14f71427d1e84f3dd0314c0f7b2291e5b200ac8c7c3b925",
            "0x000000000000000000000000fd7059cf48ef2417a1b6eeac9a77b6ca2d94a34e",
            "0x000000000000000000000000c532a74256d3db42d0bf7a0400fefdbad7694008"
          ],
          "data": "0x0000000000000000000000000000000000000000000000056bc75e2d63100000",
          "blockHash": "0x0e173671031172b7f664313ee5033b043275d38dc622636bd37ce86b071dbe4f",
          "blockNumber": "0x380b8d",
          "transactionHash": "0x52d621441a1579f0f9c9beda77d02ee4e3d9b0786e43575e6bac50e3fe4d1094",
          "transactionIndex": "0x2",
          "logIndex": "0x2",
          "removed": false
        }
      ],
      "status": "0x1",
      "logsBloom": "0x00000000000000001000000000000000000080000000000000000000000800000000000000000000000000000000000000000000000000000000000000200000000000000000000000000000000000000000000000000000000000000000000000000000000000200000000000040000000000000000000000000000000000000000000000000000000000000000000000000000000000000000000000000000020000000000000000000000000000000000000000000000000000010000000000000100000000000000000000000000000a00000000000000000000000000000010000000000000000000000000000000000000000000000000000000000000",
      "type": "0x2",
      "effectiveGasPrice": "0xb2d05e09"
    }
  ],
  "libraries": [],
  "pending": [],
  "path": "/home/maroutis/simple-stable/broadcast/Approve.s.sol/11155111/run-latest.json",
  "returns": {},
  "timestamp": 1686529984,
  "chain": 11155111,
  "multi": false,
  "commit": "425e0c9"
}